:020000040800F2
:100000000000032039080008F9030008FF03000876
:10001000050400080B04000811040008000000009B
:1000200000000000000000000000000017040008AD
:1000300023040008000000002F0400083B0400080F
:100040008D0800088D0800088D0800088D0800083C
:100050008D0800088D0800088D0800088D0800082C
:100060008D0800088D0800088D0800088D0800081C
:100070008D0800088D0800088D0800088D0800080C
:100080008D0800088D0800088D0800088D080008FC
:100090008D0800088D0800088D0800088D080008EC
:1000A0008D0800088D0800088D0800088D080008DC
:1000B0008D0800088D0800088D0800088D080008CC
:1000C0008D0800088D0800088D0800088D080008BC
:1000D0008D0800088D0800088D0800088D080008AC
:1000E0008D0800088D0800088D0800088D0800089C
:1000F0008D0800088D0800088D0800088D0800088C
:100100008D0800088D0800088D0800088D0800087B
:100110008D0800088D0800088D0800088D0800086B
:100120008D0800088D0800088D0800088D0800085B
:0C0130008D0800088D0800088D080008EC
:10013C0010B5054C237833B9044B13B10448AFF315
:10014C0000800123237010BD440400200000000037
:10015C00C436000808B5034B1BB103490348AFF381
:10016C00008008BD0000000048040020C4360008D0
:10017C0080B485B000AF78604FF0B043DA6C4FF0CC
:10018C00B0417B681343CB644FF0B043DA6C7B68AF
:10019C001340FB60FB6800BF1437BD4680BC704742
:1001AC0080B586B000AF3B1D00221A605A609A6081
:1001BC00DA601A610420FFF7DBFF0220FFF7D8FF9B
:1001CC000120FFF7D5FF0820FFF7D2FF00222321E3
:1001DC00144800F049FE10237B600023BB60002311
:1001EC00FB603B1D1946104800F0D0FC23237B60BC
:1001FC000123BB600023FB6000233B613B1D1946C0
:10020C00084800F0C3FC03237B600023BB60002381
:10021C00FB603B1D1946054800F0B8FC00BF1837C1
:10022C00BD4680BD0004004800080048000C004892
:10023C0080B483B000AF78604FF0B043D3F8903007
:10024C0023F018024FF0B0417B681343C1F8903093
:10025C0000BF0C37BD4680BC7047000080B500AFB6
:10026C0000F010FB00F012F8FFF79AFF00F0E2F933
:10027C0000F078FA0221044800F00DFE4FF47A7079
:10028C0000F080FBF6E700BF0004004880B5AEB07C
:10029C0000AF07F1700348220021184603F04AF919
:1002AC0007F1540300221A605A609A60DA601A61EE
:1002BC005A619A613B1D50220021184603F03AF90D
:1002CC004FF0B043DB684FF0B04223F07003D360C3
:1002DC004FF0B043DB6823F003034FF0B04243F020
:1002EC000103D36000F0D4FE0020FFF7A1FF394BCF
:1002FC001B6823F4C063374A43F400731360354B17
:10030C001B6803F4C0633B603B6827233B674FF4D7
:10031C0080337B670123BB674FF48073FB6701233A
:10032C00C7F88C304023C7F880300023C7F89030D2
:10033C006023C7F894300023C7F89C3007F1700392
:10034C00184601F0EBF90346002B01D000F044F8FD
:10035C006F237B650223BB650023FB6500233B6693
:10036C0000237B660023BB660023FB6607F1540366
:10037C000121184601F05EFD0346002B01D000F070
:10038C002BF842F201137B601823BB604FF400334F
:10039C00FB604FF000733B614FF000537B614FF0FB
:1003AC008073BB610023FB614FF08063BB63002350
:1003BC00FB6400233B653B1D184602F04AF90346DB
:1003CC00002B01D000F008F802F0B8FA00BFB837E3
:1003DC00BD4680BD0004005880B400AF72B6FEE785
:1003EC0080B400AF00BFBD4680BC704780B400AF86
:1003FC00FEE780B400AFFEE780B400AFFEE780B448
:10040C0000AFFEE780B400AFFEE780B400AF00BFE2
:10041C00BD4680BC704780B400AF00BFBD4680BCF9
:10042C00704780B400AF00BFBD4680BC704780B53C
:10043C0000AF00F081FA00BF80BD000080B400AFB7
:10044C00214B00229A604FF0B0431B684FF0B04232
:10045C0043F0010313604FF0B0434FF4E0229A6075
:10046C004FF0B0431A684FF0B041184B13400B607B
:10047C004FF0B043D3F894304FF0B04223F0050363
:10048C00C2F894304FF0B043D3F898304FF0B042EC
:10049C0023F00103C2F898304FF0B0430C4ADA60F5
:1004AC004FF0B0430A4A1A614FF0B0431B684FF04B
:1004BC00B04223F4802313604FF0B04300229A61C2
:1004CC0000BFBD4680BC704700ED00E0FBFEF6FAB5
:1004DC000010042280B485B000AF78604FF0B043B8
:1004EC00DA6C4FF0B0417B681343CB644FF0B043F0
:1004FC00DA6C7B681340FB60FB6800BF1437BD46A9
:10050C0080BC704780B485B000AF78604FF0B043CA
:10051C001A6E4FF0B0417B6813430B664FF0B0433B
:10052C001A6E7B681340FB60FB6800BF1437BD4636
:10053C0080BC704780B483B000AF78607B681B6868
:10054C0043F001027B681A6000BF0C37BD4680BCCB
:10055C00704780B483B000AF78607B681B6823F071
:10056C0000527B681A6000BF0C37BD4680BC7047D8
:10057C0080B483B000AF786039607B689B6823F0EF
:10058C0060423B685B071A437B689A6000BF0C377C
:10059C00BD4680BC704780B483B000AF78603960D2
:1005AC007B689B6823F060623B685B061A437B6840
:1005BC009A6000BF0C37BD4680BC704780B483B0D6
:1005CC0000AF78607B685B6823F490427B685A606C
:1005DC007B689B6823F02A027B689A6000BF0C370B
:1005EC00BD4680BC704780B483B000AF78607B6838
:1005FC00DB6903F40013B3F5001F01D1012300E004
:10060C00002318460C37BD4680BC704780B483B0BD
:10061C0000AF78607B68DB6903F48003B3F5800F6F
:10062C0001D1012300E0002318460C37BD4680BCE5
:10063C007047000080B58EB000AF07F11803202280
:10064C000021184602F076FF3B4600221A605A60E1
:10065C009A60DA601A615A614FF48040FFF752FFDA
:10066C000220FFF737FFC0233B6002237B6000238F
:10067C00BB600023FB6001233B6107237B613B468E
:10068C0019461E4802F0B6FB0023BB614FF4E13360
:10069C00FB614FF080533B6200237B620023BB6203
:1006AC000C23FB6200233B6300237B6307F11803DD
:1006BC001946134802F06AFE00211148FFF758FF53
:1006CC0000210F48FFF767FF0D48FFF742FF0C486A
:1006DC00FFF774FF0A48FFF72DFF00BF0848FFF72C
:1006EC0082FF0346002BF9D00548FFF78FFF034626
:1006FC00002BF3D000BF3837BD4680BD0004004846
:10070C000038014080B485B000AF78604FF0B04342
:10071C00DA6C4FF0B0417B681343CB644FF0B043BD
:10072C00DA6C7B681340FB60FB6800BF1437BD4676
:10073C0080BC704780B485B000AF78604FF0B04398
:10074C009A6D4FF0B0417B6813438B654FF0B0430B
:10075C009A6D7B681340FB60FB6800BF1437BD4685
:10076C0080BC704780B500AF104B114A1A600F4B1C
:10077C0008225A600D4B02229A600C4B02221A611D
:10078C000A4B00225A61094B00229A61074B002246
:10079C00DA61064B00221A62044800F095FB03460E
:1007AC00002B01D0FFF718FE00BF80BD60040020B5
:1007BC000068004080B588B000AF786007F10C038A
:1007CC0000221A605A609A60DA601A617B681B68B2
:1007DC000F4A934218D10120FFF794FF4FF4C053F6
:1007EC00FB6002233B6100237B610023BB610A2376
:1007FC00FB6107F10C0319464FF0904000F0C6F96D
:10080C004FF08060FFF796FF00BF2037BD4680BDDC
:10081C0000680040D458C4500433C4188C42F9D337
:10082C007047036004308842FBD370470C48854600
:10083C00FFF704FE0B480C490C4A0023FFF7EDFFB1
:10084C000B480C490023FFF7EEFF0B480B49002324
:10085C00FFF7E9FF02F04AFEFFF700FDFEE700009C
:10086C00000003200800002044040020D0370008BA
:10087C0044040020FC06002000000320000003209C
:10088C00FEE7000080B582B000AF0023FB710C4B7B
:10089C001B680B4A43F480731360032000F044F987
:1008AC00002000F00FF80346002B02D00123FB714F
:1008BC0001E0FFF795FDFB7918460837BD4680BD72
:1008CC000040005880B584B000AF78600023FB7303
:1008DC00174B1B78002B24D001F058FC0246144B0C
:1008EC001B7819464FF47A73B3FBF1F3B2FBF3F3B5
:1008FC00184600F03EF90346002B0FD17B680F2BF6
:10090C0009D8002279684FF0FF3000F018F9094A35
:10091C007B68136007E00123FB7304E00123FB7386
:10092C0001E00123FB73FB7B18461037BD4680BDED
:10093C00100000200C00002080B400AF054B1B7889
:10094C001A46054B1B681344034A136000BFBD468F
:10095C0080BC704710000020D406002080B400AF8B
:10096C00024B1B681846BD4680BC7047D40600205D
:10097C0080B400AF024B1B681846BD4680BC704764
:10098C000C00002080B584B000AF7860FFF7E6FF64
:10099C00B8607B68FB60FB68B3F1FF3F05D0094B87
:1009AC001B781A46FB681344FB6000BFFFF7D6FFA9
:1009BC000246BB68D31AFA689A42F7D800BF1037C0
:1009CC00BD4680BD1000002080B485B000AF7860BB
:1009DC007B6803F00703FB600C4BDB68BB60BA68F9
:1009EC004FF6FF031340BB60FB681A02BB6813434E
:1009FC0043F0BF6343F40033BB60044ABB68D3606D
:100A0C0000BF1437BD4680BC704700BF00ED00E04E
:100A1C0080B400AF044BDB681B0A03F007031846D5
:100A2C00BD4680BC704700BF00ED00E080B483B0D1
:100A3C0000AF03463960FB7197F90730002B0ADBD6
:100A4C003B68DAB20C4997F907301201D2B20B4469
:100A5C0083F800230AE03B68DAB20849FB7903F01B
:100A6C000F03043B1201D2B20B441A7600BF0C37B1
:100A7C00BD4680BC704700BF00E100E000ED00E027
:100A8C0080B489B000AFF860B9607A60FB6803F09D
:100A9C000703FB61FB69C3F10703042B28BF042385
:100AAC00BB61FB690433062B02D9FB69033B00E0F5
:100ABC0000237B614FF0FF32BB6902FA03F3DA4388
:100ACC00BB681A407B699A404FF0FF317B6901FA91
:100ADC0003F3D9437B680B40134318462437BD46B8
:100AEC0080BC704780B582B000AF78607B68013BFA
:100AFC00B3F1807F01D301230FE00A4A7B68013BED
:100B0C0053600F214FF0FF30FFF790FF054B002291
:100B1C009A60044B07221A60002318460837BD461A
:100B2C0080BD00BF10E000E080B582B000AF7860FF
:100B3C007868FFF749FF00BF0837BD4680BD80B518
:100B4C0086B000AF0346B9607A60FB73FFF760FFB5
:100B5C0078617A68B9687869FFF792FF024697F96D
:100B6C000F3011461846FFF761FF00BF1837BD461E
:100B7C0080BD80B582B000AF78607868FFF7B2FFB7
:100B8C00034618460837BD4680BD000080B487B0C8
:100B9C0000AF7860396000237B614CE13B681A68D8
:100BAC0001217B6901FA03F31340FB60FB68002B06
:100BBC0000F03E813B685B68012B0BD03B685B68A7
:100BCC00022B07D03B685B68112B03D03B685B683A
:100BDC00122B30D17B689B683B617B695B000322E5
:100BEC0002FA03F3DB433A6913403B613B68DA6872
:100BFC007B695B0002FA03F33A6913433B617B6840
:100C0C003A699A607B685B683B6101227B6902FAF6
:100C1C0003F3DB433A6913403B613B685B681B0998
:100C2C0003F001027B6902FA03F33A6913433B6157
:100C3C007B683A695A607B68DB683B617B695B0067
:100C4C00032202FA03F3DB433A6913403B613B682E
:100C5C009A687B695B0002FA03F33A6913433B61C0
:100C6C007B683A69DA603B685B68022B03D03B68AF
:100C7C005B68122B23D17B69DA087B68083253F846
:100C8C0022303B617B6903F007039B000F2202FAC1
:100C9C0003F3DB433A6913403B613B681A697B6998
:100CAC0003F007039B0002FA03F33A6913433B6119
:100CBC007B69DA087B680832396943F822107B6853
:100CCC001B683B617B695B00032202FA03F3DB4385
:100CDC003A6913403B613B685B6803F003027B6934
:100CEC005B0002FA03F33A6913433B617B683A6990
:100CFC001A603B685B6803F08053002B00F098800F
:100D0C00534A7B699B08023352F823303B617B6961
:100D1C0003F003039B000F2202FA03F3DB433A694F
:100D2C0013403B617B68B3F1904F19D07B68494A03
:100D3C00934213D07B68484A93420DD07B68474A54
:100D4C00934207D07B68464A934201D1042308E0C2
:100D5C00072306E0032304E0022302E0012300E062
:100D6C0000237A6902F00302920093403A6913431C
:100D7C003B6137497B699B0802333A6941F8232070
:100D8C00384BD3F880303B61FB68DB433A69134046
:100D9C003B613B685B6803F48033002B03D03A69FA
:100DAC00FB6813433B612F4A3B69C2F880302D4BE3
:100DBC00D3F884303B61FB68DB433A6913403B61F9
:100DCC003B685B6803F40033002B03D03A69FB6883
:100DDC0013433B61234A3B69C2F88430214B1B68A7
:100DEC003B61FB68DB433A6913403B613B685B68E2
:100DFC0003F48013002B03D03A69FB6813433B6167
:100E0C00184A3B691360174B5B683B61FB68DB431B
:100E1C003A6913403B613B685B6803F40013002B99
:100E2C0003D03A69FB6813433B610E4A3B6953603C
:100E3C007B6901337B613B681A687B6922FA03F397
:100E4C00002B7FF4ABAE00BF1C37BD4680BC704797
:100E5C00000001400004004800080048000C004855
:100E6C00001000480008005880B483B000AF7860D0
:100E7C000B467B8013467B707B78002B03D07A88E3
:100E8C007B689A6102E07A887B689A6200BF0C37B3
:100E9C00BD4680BC704780B485B000AF78600B460F
:100EAC007B807B685B69FB607A88FB6813401A0463
:100EBC00FB68D9437B880B401A437B689A6100BF5F
:100ECC001437BD4680BC7047F0B58BB006AF786068
:100EDC007B68002B01D10123ADE07B6893F82932AC
:100EEC00DBB2002B06D17B68002283F828227868BD
:100EFC00FFF760FC7B68032283F829227B681B6860
:100F0C00184602F0B5FA0023FB7335E0FB7B7A68D8
:100F1C005B011344293301221A70FB7B7A685B0155
:100F2C0013442833FA7B1A70FB7BFA7B91B27A68F4
:100F3C005B01134436330A461A80FB7B7A685B01EB
:100F4C0013442B3300221A70FB7B7A685B01134429
:100F5C00383300221A60FB7B7A685B0113443C3304
:100F6C0000221A60FB7B7A6802335B011344002277
:100F7C001A60FB7B0133FB73FA7B7B685B689A42DC
:100F8C00C4D30023FB7331E0FB7B7A685B01134411
:100F9C0003F2291300221A70FB7B7A685B0113445D
:100FAC0003F59473FA7B1A70FB7B7A685B0113442C
:100FBC0003F22B1300221A70FB7B7A685B0113443B
:100FCC0003F59C7300221A60FB7B7A685B01134467
:100FDC0003F59E7300221A60FB7B7A680A335B016F
:100FEC00134400221A60FB7B0133FB73FA7B7B6892
:100FFC005B689A42C8D37B681B683B607E686D4611
:10100C0006F110040FCC0FC523682B60331D0ECBDB
:10101C00386802F047FA7B68002283F824207B684A
:10102C00012283F829227B68DB69012B02D17868C5
:10103C0000F005F8002318461437BD46F0BD80B407
:10104C0085B000AF78607B681B68FB607B68012211
:10105C00C3F868227B68002283F86022FB68B3F82F
:10106C0054309BB243F001039AB2FB68A3F85420AE
:10107C00FB68B3F854309BB243F002039AB2FB689E
:10108C00A3F85420002318461437BD4680BC704783
:10109C0080B400AF044B1B68034A43F480731360A5
:1010AC0000BFBD4680BC70470004005880B400AF40
:1010BC00034B1B6803F4C0631846BD4680BC7047E5
:1010CC000004005880B400AF4FF0B0431B6803F429
:1010DC008013B3F5801F01D1012300E000231846D3
:1010EC00BD4680BC704780B400AF4FF0B0431B6866
:1010FC004FF0B04243F48033136000BFBD4680BC58
:10110C00704780B400AF4FF0B0431B684FF0B04253
:10111C0023F48033136000BFBD4680BC704780B49D
:10112C0000AF4FF0B0431B6803F40033B3F5003F3E
:10113C0001D1012300E000231846BD4680BC704756
:10114C0080B400AF4FF0B0431B684FF0B04243F493
:10115C008073136000BFBD4680BC704780B400AF85
:10116C004FF0B0431B684FF0B04223F48073136010
:10117C0000BFBD4680BC704780B400AF4FF0B04399
:10118C001B6803F48063B3F5806F01D1012300E089
:10119C0000231846BD4680BC704780B483B000AFB6
:1011AC0078604FF0B0435B6823F0FE427B681B060F
:1011BC004FF0B04113434B6000BF0C37BD4680BCB1
:1011CC00704780B400AF4FF0B043D3F898304FF075
:1011DC00B04243F00103C2F8983000BFBD4680BC5A
:1011EC00704780B400AF4FF0B043D3F898304FF055
:1011FC00B04223F00103C2F8983000BFBD4680BC5A
:10120C00704780B400AF4FF0B043D3F8983003F080
:10121C000203022B01D1012300E000231846BD4636
:10122C0080BC704780B400AF4FF0B043D3F890301F
:10123C004FF0B04243F00103C2F8903000BFBD46FE
:10124C0080BC704780B400AF4FF0B043D3F89030FF
:10125C004FF0B04223F00103C2F8903000BFBD46FE
:10126C0080BC704780B400AF4FF0B043D3F89030DF
:10127C004FF0B04243F00403C2F8903000BFBD46BB
:10128C0080BC704780B400AF4FF0B043D3F89030BF
:10129C004FF0B04223F00403C2F8903000BFBD46BB
:1012AC0080BC704780B400AF4FF0B043D3F890309F
:1012BC0003F00203022B01D1012300E000231846A6
:1012CC00BD4680BC704780B400AF4FF0B043D3F83C
:1012DC0094304FF0B04243F00103C2F8943000BF99
:1012EC00BD4680BC704780B400AF4FF0B043D3F81C
:1012FC0094304FF0B04223F00103C2F8943000BF99
:10130C00BD4680BC704780B400AF4FF0B043D3F8FB
:10131C00943003F00203022B01D1012300E00023DF
:10132C001846BD4680BC704780B400AF4FF0B04348
:10133C00D3F894304FF0B04243F00403C2F8943029
:10134C0000BFBD4680BC704780B400AF4FF0B043C7
:10135C00D3F894304FF0B04223F00403C2F8943029
:10136C0000BFBD4680BC704780B400AF4FF0B043A7
:10137C00D3F8943003F00803082B01D1012300E0CB
:10138C0000231846BD4680BC704780B483B000AFC4
:10139C0078604FF0B043D3F8943023F470627B68DC
:1013AC001B024FF0B0411343C1F8943000BF0C370F
:1013BC00BD4680BC704780B400AF4FF0B0431B6893
:1013CC004FF0B04243F00103136000BFBD4680BC38
:1013DC00704780B400AF4FF0B0431B684FF0B04281
:1013EC0023F00103136000BFBD4680BC704780B47E
:1013FC0000AF4FF0B0431B6803F00203022B01D186
:10140C00012300E000231846BD4680BC704780B421
:10141C0083B000AF78604FF0B0431B6823F0F0024C
:10142C004FF0B0417B6813430B6000BF0C37BD46D7
:10143C0080BC704780B483B000AF4FF0B0431B68E2
:10144C0003F0F0037B607B68B02B01D9B0237B6089
:10145C007B6818460C37BD4680BC704780B483B09F
:10146C0000AF78604FF0B0435B6823F47F427B6839
:10147C001B024FF0B04113434B6000BF0C37BD460D
:10148C0080BC704780B483B000AF78604FF0B0433D
:10149C009B6823F003024FF0B0417B6813438B60D1
:1014AC0000BF0C37BD4680BC704780B400AF4FF016
:1014BC00B0439B6803F00C031846BD4680BC7047D4
:1014CC0080B483B000AF78604FF0B0439B6823F0DA
:1014DC00F0024FF0B0417B6813438B6000BF0C37B8
:1014EC00BD4680BC704780B483B000AF78604FF0CD
:1014FC00B043D3F8083123F0F0024FF0B0417B68D1
:10150C001343C1F8083100BF0C37BD4680BC70478F
:10151C0080B483B000AF78604FF0B043D3F808319B
:10152C0023F00F027B681B094FF0B0411343C1F845
:10153C00083100BF0C37BD4680BC704780B483B007
:10154C0000AF78604FF0B0439B6823F4E0624FF03B
:10155C00B0417B6813438B6000BF0C37BD4680BC29
:10156C00704780B483B000AF78604FF0B0439B6895
:10157C0023F460524FF0B0417B6813438B6000BF83
:10158C000C37BD4680BC704780B400AF4FF0B04301
:10159C009B6803F0F0031846BD4680BC704780B4CE
:1015AC0000AF4FF0B043D3F808311B0103F0F00348
:1015BC001846BD4680BC704780B400AF4FF0B043B6
:1015CC001B684FF0B04243F08073136000BFBD4600
:1015DC0080BC704780B400AF4FF0B0431B684FF035
:1015EC00B04223F08073136000BFBD4680BC7047CF
:1015FC0080B400AF4FF0B0431B6803F00073B3F13D
:10160C00007F01D1012300E000231846BD4680BCB9
:10161C00704780B400AF4FF0B043DB681B0A03F097
:10162C007F031846BD4680BC704780B400AF4FF0B6
:10163C00B043DB6803F060431846BD4680BC70477E
:10164C0080B400AF4FF0B043DB6803F07003184672
:10165C00BD4680BC704780B400AF4FF0B043DB6830
:10166C0003F003031846BD4680BC704780B400AF3E
:10167C004FF0B0439B6803F48033B3F5803F01D146
:10168C00012300E000231846BD4680BC704780B49F
:10169C0000AF4FF0B043D3F8083103F40033B3F587
:1016AC00003F01D1012300E000231846BD4680BC59
:1016BC00704780B400AF4FF0B043D3F8083103F457
:1016CC008033B3F5803F01D1012300E0002318469D
:1016DC00BD4680BC704780B400AF4FF0B0439B68F0
:1016EC0003F40033B3F5003F01D1012300E00023E4
:1016FC001846BD4680BC704780B400AF4FF0B04375
:10170C009B6803F48023B3F5802F01D1012300E003
:10171C0000231846BD4680BC7047000090B58DB0C4
:10172C0000AF78607B68002B01D101237EE37B68DE
:10173C001B6803F02003002B00F09280FFF7B5FE2E
:10174C00F862FFF788FFB862FB6A002B05D0FB6AD2
:10175C000C2B4CD1BB6A012B49D1FFF748FE034639
:10176C00002B05D07B68DB69002B01D101235DE3E5
:10177C007B685C6AFFF75EFE03469C4214D97B686B
:10178C005B6A184600F016FD0346002B01D00123BE
:10179C004CE37B685B6A1846FFF739FE7B681B6A73
:1017AC001846FFF75BFE13E07B685B6A1846FFF791
:1017BC002EFE7B681B6A1846FFF750FE7B685B6A3F
:1017CC00184600F0F7FC0346002B01D001232DE353
:1017DC0000F0DCFC0246B34B1A60B34B1B68184696
:1017EC00FFF770F80346002B39D001231EE37B680A
:1017FC00DB69002B1ED0FFF7DEFDFFF7AFF8786238
:10180C0008E0FFF7ABF802467B6AD31A022B01D92A
:10181C0003230BE3FFF7EBFD0346002BF1D07B68B2
:10182C005B6A1846FFF7F3FD7B681B6A1846FFF7E7
:10183C0015FE15E0FFF7CDFDFFF790F8786208E094
:10184C00FFF78CF802467B6AD31A022B01D90323CB
:10185C00ECE2FFF7CCFD0346002BF1D100E000BF1A
:10186C007B681B6803F00103002B4ED0FFF71DFEB5
:10187C003862FFF7F0FEF8613B6A082B05D03B6A33
:10188C000C2B0DD1FB69032B0AD1FFF748FC034647
:10189C00002B39D07B685B68002B35D10123C5E266
:1018AC007B685B68B3F5803F02D1FFF71CFC01E05D
:1018BC00FFF727FC7B685B68002B12D0FFF74EF814
:1018CC00786208E0FFF74AF802467B6AD31A642B69
:1018DC0001D90323AAE2FFF722FC0346002BF1D027
:1018EC0013E0FFF73BF8786208E0FFF737F80246A1
:1018FC007B6AD31A642B01D9032397E2FFF70FFC01
:10190C000346002BF1D100E000BF7B681B6803F09D
:10191C000203002B51D0FFF7C8FDB861FFF79BFE07
:10192C007861BB69042B05D0BB690C2B13D17B6987
:10193C00022B10D1FFF720FC0346002B05D07B684F
:10194C00DB68002B01D1012370E27B681B69184610
:10195C00FFF723FC31E07B68DB68002B19D0FFF725
:10196C00EFFBFEF7FBFF786208E0FEF7F7FF02469D
:10197C007B6AD31A022B01D9032357E2FFF7FCFB36
:10198C000346002BF1D07B681B691846FFF705FC5A
:10199C0013E0FFF7E3FBFEF7E1FF786208E0FEF7E8
:1019AC00DDFF02467B6AD31A022B01D903233DE2E9
:1019BC00FFF7E2FB0346002BF1D17B681B6803F0B9
:1019CC000803002B06D17B681B6803F01003002B67
:1019DC0000F0A3807B685B69002B76D07B681B686A
:1019EC0003F01003002B46D0FFF78DFC0346002BB1
:1019FC0013D1FFF768FCFEF7B1FF786208E0FEF741
:101A0C00ADFF02467B6AD31A022B01D903230DE2E8
:101A1C00FFF779FC0346002BF1D0FFF785FCFEF7AE
:101A2C009DFF786208E0FEF799FF02467B6AD31AA5
:101A3C00032B01D90323F9E1FFF796FC0346002B96
:101A4C00F1D07B689B691846FFF79FFCFFF74BFCB6
:101A5C00FEF784FF786208E0FEF780FF02467B6A9F
:101A6C00D31A022B01D90323E0E1FFF74CFC034608
:101A7C00002BF1D151E0FFF726FCFEF76FFF7862E7
:101A8C0008E0FEF76BFF02467B6AD31A022B01D9E2
:101A9C000323CBE1FFF737FC0346002BF1D0FFF714
:101AAC0053FC0CE0080000200C000020FEF756FF51
:101ABC0002467B6AD31A032B01D90323B6E1FFF745
:101ACC0053FC0346002BF1D127E0FFF73DFCFEF75A
:101ADC0045FF786208E0FEF741FF02467B6AD31AA5
:101AEC00032B01D90323A1E1FFF73EFC0346002B96
:101AFC00F1D1FFF7F8FBFEF731FF786208E0FEF753
:101B0C002DFF02467B6AD31A022B01D903238DE1E8
:101B1C00FFF7F9FB0346002BF1D17B681B6803F040
:101B2C000403002B5BD0B54B1B6803F48073002BB4
:101B3C0014D1FFF7ADFAFEF711FF786208E0FEF75B
:101B4C000DFF02467B6AD31A022B01D903236DE1E8
:101B5C00AA4B1B6803F48073002BF0D07B689B6846
:101B6C00012B02D1FFF75EFB0CE07B689B68052B19
:101B7C0004D1FFF777FBFFF755FB03E0FFF762FBA0
:101B8C00FFF780FB7B689B68002B14D0FEF7E6FE0A
:101B9C0078620AE0FEF7E2FE02467B6AD31A41F253
:101BAC008832934201D9032340E1FFF77BFB0346C4
:101BBC00002BEFD013E0FEF7D1FE78620AE0FEF7BF
:101BCC00CDFE02467B6AD31A41F28832934201D988
:101BDC0003232BE1FFF766FB0346002BEFD17B6859
:101BEC001B6803F04003002B2CD07B689B6A002BF6
:101BFC0014D0FFF7E6FAFEF7B1FE786208E0FEF7C4
:101C0C00ADFE02467B6AD31A022B01D903230DE1E8
:101C1C00FFF7F7FA0346002BF1D013E0FFF7E1FAD8
:101C2C00FEF79CFE786208E0FEF798FE02467B6A9F
:101C3C00D31A022B01D90323F8E0FFF7E2FA03468B
:101C4C00002BF1D17B68DB6A002B00F0EE80FFF7F4
:101C5C002CFC38614FF0B043DB68FB607B68DB6ABF
:101C6C00022B40F0AF80FB6803F003027B681B6B18
:101C7C009A4223D1FB6803F070027B685B6B9A423B
:101C8C001CD1FB681B0A03F07F027B689B6B9A429A
:101C9C0014D1FB6803F478127B68DB6B9A420DD18C
:101CAC00FB6803F060627B681B6C9A4206D1FB6890
:101CBC0003F060427B685B6C9A425DD03B690C2BF5
:101CCC0058D04FF0B0431B6803F08063002B01D059
:101CDC000123ABE0FFF77EFCFEF740FE786208E0E4
:101CEC00FEF73CFE02467B6AD31A022B01D9032372
:101CFC009CE04FF0B0431B6803F00073002BEFD156
:101D0C004FF0B043DA683E4B13407A68116B7A6837
:101D1C00526B11437A68926B120211437A68D26B40
:101D2C0011437A68126C11437A68526C0A434FF073
:101D3C00B0411343CB60FFF73FFC4FF0B043DB687F
:101D4C004FF0B04243F08053D360FEF707FE786249
:101D5C0008E0FEF703FE02467B6AD31A022B01D978
:101D6C00032363E04FF0B0431B6803F00073002BB8
:101D7C00EFD05AE0012359E04FF0B0431B6803F059
:101D8C000073002B51D1FFF717FC4FF0B043DB6809
:101D9C004FF0B04243F08053D360FEF7DFFD786222
:101DAC0008E0FEF7DBFD02467B6AD31A022B01D951
:101DBC0003233BE04FF0B0431B6803F00073002B90
:101DCC00EFD032E03B690C2B2DD0FFF703FC4FF02A
:101DDC00B043DB684FF0B04223F00303D3604FF005
:101DEC00B043DB684FF0B04223F0885323F48033C8
:101DFC00D360FEF7B3FD78620DE000BF000400581D
:101E0C008C80C111FEF7AAFD02467B6AD31A022B05
:101E1C0001D903230AE04FF0B0431B6803F00073B1
:101E2C00002BEFD101E0012300E0002318463437EA
:101E3C00BD4690BD80B584B000AF786039607B68DA
:101E4C00002B01D101232DE1984B1B6803F00703F4
:101E5C003A689A421BD9954B1B6823F007029349A9
:101E6C003B6813430B60FEF779FDF86008E0FEF762
:101E7C0075FD0246FB68D31A022B01D9032311E12D
:101E8C008A4B1B6803F007033A689A42EFD17B68D0
:101E9C001B6803F00203002B16D07B689B68184666
:101EAC00FFF70EFBFEF75AFDF86008E0FEF756FD53
:101EBC000246FB68D31A022B01D90323F2E0FFF789
:101ECC00D5FB0346002BF1D07B681B6803F0200385
:101EDC00002B16D07B685B691846FFF704FBFEF7F6
:101EEC003DFDF86008E0FEF739FD0246FB68D31AA9
:101EFC00022B01D90323D5E0FFF7C9FB0346002BC6
:101F0C00F1D07B681B6803F04003002B16D07B6874
:101F1C009B691846FFF7FCFAFEF720FDF86008E015
:101F2C00FEF71CFD0246FB68D31A022B01D90323D2
:101F3C00B8E0FFF7BEFB0346002BF1D07B681B68B3
:101F4C0003F00403002B16D07B68DB681846FFF700
:101F5C00F5FAFEF703FDF86008E0FEF7FFFC024619
:101F6C00FB68D31A022B01D903239BE0FFF7B3FBC9
:101F7C000346002BF1D07B681B6803F00803002B91
:101F8C0017D07B681B69DB001846FFF7EAFAFEF7EF
:101F9C00E5FCF86008E0FEF7E1FC0246FB68D31AAA
:101FAC00022B01D903237DE0FFF7A6FB0346002B90
:101FBC00F1D07B681B6803F00103002B43D07B68D6
:101FCC005B68022B06D1FFF7AAF80346002B1ED143
:101FDC00012367E07B685B68032B06D1FFF708FBE6
:101FEC000346002B13D101235CE07B685B68002B5C
:101FFC0006D1FFF7FCF90346002B08D1012351E071
:10200C00FFF7BAF80346002B01D101234AE07B68A5
:10201C005B681846FFF736FAFEF7A0FCF8600AE09A
:10202C00FEF79CFC0246FB68D31A41F288329342BD
:10203C0001D9032336E0FFF738FA02467B685B6868
:10204C009B009A42ECD1194B1B6803F007033A68CA
:10205C009A421BD2154B1B6823F0070213493B68AD
:10206C0013430B60FEF77AFCF86008E0FEF776FC91
:10207C000246FB68D31A022B01D9032312E00B4B47
:10208C001B6803F007033A689A42EFD100F07EF820
:10209C000246074B1A60FEF76BFC03461846FEF728
:1020AC0011FC034618461037BD4680BD0040005851
:1020BC000800002090B585B000AFFFF7F6F9786006
:1020CC007B68002B0AD1FFF7B5F903461B0903F017
:1020DC000F032B4A52F82330FB604BE07B68042B38
:1020EC0002D1284BFB6045E07B68082B0AD1FEF738
:1020FC00E9FF0346012B02D1224BFB603AE0224B55
:10210C00FB6037E0FFF7A7FA38603B68022B03D07F
:10211C003B68032B03D00DE01A4BBB6015E0FEF7B8
:10212C00D1FF0346012B02D1164BBB600DE0164BC1
:10213C00BB600AE0FFF77EF903461B0903F00F03AF
:10214C000F4A52F82330BB6000BFFFF762FA024619
:10215C00BB6803FB02F4FFF773FA03461B09013358
:10216C00B4FBF3F4FFF761FA03465B0F0133B4FBE6
:10217C00F3F3FB60FB6818461437BD4690BD00BFF7
:10218C00683700080024F4000048E80198B500AF57
:10219C00FFF790FF0446FFF7F7F903461B0903F01E
:1021AC000F03034A52F82330B4FBF3F3184698BDDF
:1021BC000837000890B585B000AF78607B68B02B0D
:1021CC0003D9154BDB6AFB6007E07B681B0903F046
:1021DC000F03114A52F82330FB60FFF7E0F9034676
:1021EC001B0903F00F030D4A52F82330FA68B2FBB7
:1021FC00F3F3BB60BB680A4AA2FB03239C0CFEF7FB
:10220C0055FF03461946204600F00CF803461846C5
:10221C001437BD4690BD00BF68370008083700086A
:10222C0083DE1B4390B593B000AF78603960394BB7
:10223C0007F128040FCB84E80F00374A07F11C0381
:10224C0007CA83E80700354B07F10C040FCB84E871
:10225C000F0000237B643B68B3F5007F1CD1002387
:10226C003B6415E03B6C9B0007F14802134453F8A8
:10227C00203C7A689A4208D83B6C9B0007F14802D4
:10228C00134453F83C3C7B6422E03B6C01333B64CD
:10229C003B6C032BE6D91BE00023FB6315E0FB6BC7
:1022AC009B0007F14802134453F82C3C7A689A427D
:1022BC0008D8FB6B9B0007F14802134453F83C3CD5
:1022CC007B6405E0FB6B0133FB63FB6B022BE6D9F4
:1022DC00134B1B6823F0070211497B6C13430B60F3
:1022EC00FEF73CFBB86308E0FEF738FB0246BB6B1D
:1022FC00D31A022B01D9032307E0094B1B6803F007
:10230C0007037A6C9A42EFD1002318464C37BD462E
:10231C0090BD00BFDC360008EC360008F83600082B
:10232C000040005880B400AF4FF0B043D3F8903069
:10233C0003F00103012B01D1012300E00023184617
:10234C00BD4680BC704780B400AF4FF0B043D3F8AB
:10235C00903003F00203022B01D1012300E0002393
:10236C001846BD4680BC704780B400AF4FF0B043F8
:10237C001B684FF0B04243F00403136000BFBD462E
:10238C0080BC704780B483B000AF78604FF0B0432E
:10239C00D3F8943023F440424FF0B0417B681343A0
:1023AC00C1F8943000BF0C37BD4680BC704780B478
:1023BC0083B000AF78604FF0B0435B6A23F0030248
:1023CC004FF0B0417B6813434B6200BF0C37BD46E6
:1023DC0080BC704780B483B000AF78604FF0B043DE
:1023EC005B6A23F030024FF0B0417B6813434B62C1
:1023FC0000BF0C37BD4680BC704780B483B000AFC3
:10240C0078604FF0B043D3F8883023F003024FF0DC
:10241C00B0417B681343C1F8883000BF0C37BD4610
:10242C0080BC704780B483B000AF78604FF0B0438D
:10243C00D3F8883023F440624FF0B0417B681343EB
:10244C00C1F8883000BF0C37BD4680BC704780B4E3
:10245C0083B000AF78604FF0B043D3F888207B682E
:10246C001B0903F47F23DB431A407B681B0103F435
:10247C007F234FF0B0411343C1F8883000BF0C37B5
:10248C00BD4680BC704780B483B000AF78604FF01D
:10249C00B043D3F888207B681B0C1B04DB431A4029
:1024AC007B681B044FF0B0411343C1F8883000BF68
:1024BC000C37BD4680BC704780B483B000AF7860E9
:1024CC004FF0B043D3F8883023F440024FF0B041C2
:1024DC007B681343C1F8883000BF0C37BD4680BC05
:1024EC00704780B483B000AF78604FF0B043D3F83E
:1024FC00883023F040424FF0B0417B681343C1F861
:10250C00883000BF0C37BD4680BC704780B483B0A8
:10251C0000AF78604FF0B043D3F8883023F04062BE
:10252C004FF0B0417B681343C1F8883000BF0C37C3
:10253C00BD4680BC704780B582B000AF78607868CB
:10254C00FFF7E4FF00BF0837BD4680BD80B483B001
:10255C0000AF78604FF0B043D3F8883023F040528E
:10256C004FF0B0417B681343C1F8883000BF0C3783
:10257C00BD4680BC704780B483B000AF78604FF02C
:10258C00B043D3F8903023F440724FF0B0417B68E5
:10259C001343C1F8903000BF0C37BD4680BC704768
:1025AC0080B400AF4FF0B043D3F8903003F44073D5
:1025BC001846BD4680BC704780B400AF4FF0B043A6
:1025CC00D3F890304FF0B04243F48033C2F89030DF
:1025DC0000BFBD4680BC704780B400AF4FF0B04325
:1025EC00D3F890304FF0B04223F48033C2F89030DF
:1025FC0000BFBD4680BC704780B400AF4FF0B04305
:10260C001B684FF0B04243F08063136000BFBD46BF
:10261C0080BC704780B400AF4FF0B0431B684FF0E4
:10262C00B04223F08063136000BFBD4680BC70478E
:10263C0080B400AF4FF0B0431B6803F00063B3F1FC
:10264C00006F01D1012300E000231846BD4680BC79
:10265C00704780B588B000AF78600023FB7700230B
:10266C00BB777B681B6803F04003002B33D07B687F
:10267C001B6BB3F5800F0CD0B3F5800F02D8002B79
:10268C0010D017E0B3F5000F17D0B3F5400F16D0EC
:10269C0010E04FF0B043DB684FF0B04243F48033AE
:1026AC00D3600DE07B680433184600F04DF9034607
:1026BC00FB7705E00123FB7702E000BF00E000BFE1
:1026CC00FB7F002B05D17B681B6B1846FFF7F4FED4
:1026DC0001E0FB7FBB777B681B6803F40063002B76
:1026EC0046D0FFF75DFFB8617B681B6CBA699A42F4
:1026FC003CD0FEF7CDFCBB69002B05D17B681B6C75
:10270C001846FFF738FF2EE04FF0B043D3F8903067
:10271C007B61FFF751FFFFF75FFF7B6923F440728A
:10272C007B681B6C13437B614FF0B0427B69C2F832
:10273C009030FFF7F7FD0346012B14D1FEF70EF98D
:10274C0038610BE0FEF70AF902463B69D31A41F2F5
:10275C008832934202D90323FB7704E0FFF7F3FDA1
:10276C000346012BEED1FB7FBB7701E0FB7FBB77F0
:10277C007B681B6803F00103002B04D07B689B690A
:10278C001846FFF73AFE7B681B6803F00203002B28
:10279C0004D07B68DB691846FFF744FE7B681B6836
:1027AC0003F01003002B04D07B689B6A1846FFF7DC
:1027BC006AFE7B681B6803F02003002B04D07B6847
:1027CC00DB6A1846FFF75FFE7B681B6803F00403A7
:1027DC00002B04D07B681B6A1846FFF738FE7B6819
:1027EC001B6803F00803002B04D07B685B6A184657
:1027FC00FFF72DFE7B681B6803F48073002B22D03F
:10280C007B685B6B1846FFF796FE7B685B6BB3F1DE
:10281C00006F07D14FF0B043DB684FF0B04243F08C
:10282C008073D3607B685B6BB3F1806F0BD17B687B
:10283C000433184600F0E3F80346FB77FB7F002BCC
:10284C0001D0FB7FBB777B681B6803F40073002B04
:10285C002BD07B689B6BB3F1804F08D07B689B6B54
:10286C00B3F1004F03D07B689B6B002B05D17B68C9
:10287C009B6B1846FFF735FE0AE07B689B6B23F0D9
:10288C008053FB600020FFF72CFEF868FFF73EFE3C
:10289C007B689B6BB3F1C05F07D14FF0B043DB6833
:1028AC004FF0B04243F08073D3607B681B6803F435
:1028BC008063002B22D07B68DB6B1846FFF746FE4B
:1028CC007B68DB6BB3F1005F07D14FF0B043DB6883
:1028DC004FF0B04243F48033D3607B68DB6BB3F1D1
:1028EC00805F0BD17B680433184600F0E3F8034695
:1028FC00FB77FB7F002B01D0FB7FBB777B681B68D2
:10290C0003F48053002B04D07B685B6C1846FFF7F4
:10291C0039FD7B681B6803F40053002B09D07B68DE
:10292C00DB6C1846FFF756FD7B689B6C1846FFF76F
:10293C003EFDBB7F18462037BD4680BD80B500AF3D
:10294C00FFF712FD00BF80BD80B584B000AF78608A
:10295C000023FB73FFF75EFEFEF700F8B86009E09A
:10296C00FDF7FCFF0246BB68D31A022B02D90323E6
:10297C00FB7304E0FFF75CFE0346002BF0D1FB7BFE
:10298C00002B37D14FF0B0431B6923F4FE427B6818
:10299C001B681B024FF0B04113430B614FF0B04367
:1029AC001B6923F478127B685B684FF0B0411343CA
:1029BC000B61FFF721FEFDF7D1FFB86009E0FDF7D1
:1029CC00CDFF0246BB68D31A022B02D90323FB733B
:1029DC0004E0FFF72DFE0346012BF0D1FB7B002B0F
:1029EC0008D14FF0B0431A697B681B694FF0B041B6
:1029FC0013430B61FB7B18461037BD4680BD80B579
:102A0C0084B000AF78600023FB73FFF703FEFDF783
:102A1C00A5FFB86009E0FDF7A1FF0246BB68D31A19
:102A2C00022B02D90323FB7304E0FFF701FE0346DC
:102A3C00002BF0D1FB7B002B37D14FF0B0431B693F
:102A4C0023F4FE427B681B681B024FF0B04113431A
:102A5C000B614FF0B0431B6923F060627B689B688D
:102A6C004FF0B04113430B61FFF7C6FDFDF776FF46
:102A7C00B86009E0FDF772FF0246BB68D31A022B5F
:102A8C0002D90323FB7304E0FFF7D2FD0346012BAD
:102A9C00F0D1FB7B002B08D14FF0B0431A697B6857
:102AAC001B694FF0B04113430B61FB7B1846103789
:102ABC00BD4680BD80B584B000AF78600023FB7349
:102ACC00FFF7A8FDFDF74AFFB86009E0FDF746FFE8
:102ADC000246BB68D31A022B02D90323FB7304E012
:102AEC00FFF7A6FD0346002BF0D1FB7B002B37D163
:102AFC004FF0B0431B6923F4FE427B681B681B023A
:102B0C004FF0B04113430B614FF0B0431B6923F0FE
:102B1C0060427B68DB684FF0B04113430B61FFF7F9
:102B2C006BFDFDF71BFFB86009E0FDF717FF0246D0
:102B3C00BB68D31A022B02D90323FB7304E0FFF703
:102B4C0077FD0346012BF0D1FB7B002B08D14FF016
:102B5C00B0431A697B681B694FF0B04113430B619A
:102B6C00FB7B18461037BD4680BD80B48BB000AFE0
:102B7C00F860B9607A60FB681A68BB687B617B6936
:102B8C0093FAA3F33B613B69BB61BB69002B01D199
:102B9C00202303E0BB69B3FA83F3DBB25B000321B0
:102BAC0001FA03F3DB431A40BB683B623B6A93FABE
:102BBC00A3F3FB61FB697B627B6A002B01D12023B1
:102BCC0003E07B6AB3FA83F3DBB25B00796801FA4A
:102BDC0003F31A43FB681A6000BF2C37BD4680BC58
:102BEC00704780B485B000AFF860B9607A60FB685C
:102BFC005A68BB68DB431A40BB68796801FB03F376
:102C0C001A43FB685A6000BF1437BD4680BC70473E
:102C1C0080B48BB000AFF860B9607A60FB689A68DA
:102C2C00BB687B617B6993FAA3F33B613B69BB6136
:102C3C00BB69002B01D1202303E0BB69B3FA83F3FA
:102C4C00DBB25B00032101FA03F3DB431A40BB68E0
:102C5C003B623B6A93FAA3F3FB61FB697B627B6A81
:102C6C00002B01D1202303E07B6AB3FA83F3DBB2A0
:102C7C005B00796801FA03F31A43FB689A6000BFA2
:102C8C002C37BD4680BC704780B48BB000AFF86069
:102C9C00B9607A60FB68DA68BB687B617B6993FA20
:102CAC00A3F33B613B69BB61BB69002B01D12023C2
:102CBC0003E0BB69B3FA83F3DBB25B00032101FAD7
:102CCC0003F3DB431A40BB683B623B6A93FAA3F302
:102CDC00FB61FB697B627B6A002B01D1202303E043
:102CEC007B6AB3FA83F3DBB25B00796801FA03F316
:102CFC001A43FB68DA6000BF2C37BD4680BC7047B6
:102D0C0080B48BB000AFF860B9607A60FB681A6A67
:102D1C00BB687B617B6993FAA3F33B613B69BB6145
:102D2C00BB69002B01D1202303E0BB69B3FA83F309
:102D3C00DBB29B000F2101FA03F3DB431A40BB68A3
:102D4C003B623B6A93FAA3F3FB61FB697B627B6A90
:102D5C00002B01D1202303E07B6AB3FA83F3DBB2AF
:102D6C009B00796801FA03F31A43FB681A6200BFEF
:102D7C002C37BD4680BC704780B48BB000AFF86078
:102D8C00B9607A60FB685A6ABB681B0A7B617B6915
:102D9C0093FAA3F33B613B69BB61BB69002B01D187
:102DAC00202303E0BB69B3FA83F3DBB29B000F2152
:102DBC0001FA03F3DB431A40BB681B0A3B623B6A14
:102DCC0093FAA3F3FB61FB697B627B6A002B01D155
:102DDC00202303E07B6AB3FA83F3DBB29B007968B0
:102DEC0001FA03F31A43FB685A6200BF2C37BD4645
:102DFC0080BC704780B58AB000AF786039603B68A2
:102E0C001B68BB61BB6993FAA3F37B617B69FB61B4
:102E1C00FB69002B01D1202303E0FB69B3FA83F398
:102E2C00DBB27B6257E03B681A6801217B6A01FACE
:102E3C0003F313403B623B6A002B49D03B685B6851
:102E4C00012B03D03B685B68022B0DD13B689B6860
:102E5C001A46396A7868FFF7DBFE3B68DB681A466E
:102E6C00396A7868FFF7BDFE3B681B691A46396AF8
:102E7C007868FFF709FF3B685B68022B21D13B6A3E
:102E8C00FB60FB6893FAA3F3BB60BB683B613B69D7
:102E9C00002B01D1202303E03B69B3FA83F3DBB2AF
:102EAC00072B07D83B685B691A46396A7868FFF7C5
:102EBC0027FF06E03B685B691A46396A7868FFF7BA
:102ECC005BFF3B685B681A46396A7868FFF74DFE12
:102EDC007B6A01337B623B681A687B6A22FA03F3D4
:102EEC00002BA0D1002318462837BD4680BD80B4E6
:102EFC0000AF4FF0B0431B6803F48013B3F5801F91
:102F0C0001D1012300E000231846BD4680BC704768
:102F1C0080B400AF4FF0B0431B6803F48063B3F58B
:102F2C00806F01D1012300E000231846BD4680BC10
:102F3C00704780B400AF4FF0B043D3F8903003F03B
:102F4C000203022B01D1012300E000231846BD46E9
:102F5C0080BC704780B483B000AF4FF0B0431B68A7
:102F6C0003F0F0037B607B68B02B01D9B0237B604E
:102F7C007B6818460C37BD4680BC704780B400AFE8
:102F8C004FF0B0439B6803F00C031846BD4680BC61
:102F9C00704780B400AF4FF0B0439B6803F0F00370
:102FAC001846BD4680BC704780B400AF4FF0B043AC
:102FBC009B6803F460531846BD4680BC704780B4D0
:102FCC0083B000AF78604FF0B043D3F888207B68B3
:102FDC00134018460C37BD4680BC704780B400AF18
:102FEC004FF0B043DB681B0A03F07F031846BD4665
:102FFC0080BC704780B400AF4FF0B043DB6803F087
:10300C0060431846BD4680BC704780B400AF4FF09B
:10301C00B043DB6803F070031846BD4680BC7047B4
:10302C0080B400AF4FF0B043DB6803F003031846E5
:10303C00BD4680BC7047000080B584B000AF78609E
:10304C000023FB607868FFF7BAFF0346022B07D01A
:10305C00032B0DD0012B14D100F02AF8F8601FE0DF
:10306C00FFF756FF0346012B17D1104BFB6014E002
:10307C00FFF75FFF0346012B11D14FF40043FB60B8
:10308C000DE000F015F80346184600F06BF8034607
:10309C00184600F07DF8F86002E000BF00E000BFC9
:1030AC00FB6818461037BD4680BD00BF0024F400F5
:1030BC0080B582B000AFFFF761FF03460C2B3AD806
:1030CC0001A252F823F000BF093100084331000877
:1030DC0043310008433100081F3100084331000818
:1030EC004331000843310008253100084331000802
:1030FC0043310008433100083B310008FFF72AFF39
:10310C0003461B0903F00F03134A52F823307B606C
:10311C001CE0124B7B6019E0FFF7E9FE0346012B24
:10312C0002D10E4B7B6011E00D4B7B600EE000F08A
:10313C0047F878600AE0FFF70DFF03461B0903F020
:10314C000F03054A52F823307B6000BF7B6818469A
:10315C000837BD4680BD00BF683700080024F40066
:10316C000048E80180B582B000AF7860FFF711FF2E
:10317C0003461B0903F00F03044A52F823307A6804
:10318C00B2FBF3F318460837BD4680BD083700087C
:10319C0080B582B000AF7860FFF706FF0346DB0A0C
:1031AC0003F00703054A52F8233003F01F037A6833
:1031BC0022FA03F318460837BD4680BD483700088D
:1031CC0090B583B000AFFFF72BFF38603B68022B44
:1031DC0010D03B68032B10D03B68012B18D1FFF7A4
:1031EC00B9FE03461B0903F00F031B4A52F82330A8
:1031FC007B6018E0194B7B6015E0FFF778FE034607
:10320C00012B02D1154B7B600DE0154B7B600AE066
:10321C00FFF7A0FE03461B0903F00F030E4A52F8FA
:10322C0023307B6000BFFFF7D9FE02467B6803FBAF
:10323C0002F4FFF7EAFE03461B090133B4FBF3F477
:10324C00FFF7D8FE03465B0F0133B4FBF3F31846CC
:10325C000C37BD4690BD00BF683700080024F40051
:10326C000048E80180B483B000AF78607B681B68CD
:10327C0003F00103012B01D1012300E000231846C8
:10328C000C37BD4680BC704780B483B000AF78600B
:10329C0039607B68DB6A23F00F033A6892B21A43F9
:1032AC007B68DA6200BF0C37BD4680BC704780B4C7
:1032BC0083B000AF786039607B685B6823F4405260
:1032CC003B681A437B685A6000BF0C37BD4680BC14
:1032DC00704780B483B000AF786039607B689B68BE
:1032EC0023F440723B681A437B689A6000BF0C372A
:1032FC00BD4680BC7047000080B487B000AFF8605A
:10330C00B9607A603B603B68B3F5004F23D17B68B2
:10331C009BB21A461C4B33F812301A46BB68B3FBEF
:10332C00F2F35A003B6A5B081A443B6AB2FBF3F3B4
:10333C009BB27B617A694FF6F07313403B617B69FA
:10334C005B089BB203F007033A6913433B61FB68CC
:10335C003A69DA6013E07B689BB21A460A4B33F881
:10336C0012301A46BB68B3FBF2F23B6A5B081A4494
:10337C003B6AB2FBF3F39BB21A46FB68DA6000BF00
:10338C001C37BD4680BC7047A837000880B586B096
:10339C0002AF786039600123FB730023BB6078684F
:1033AC00FFF760FF0346002B40D17B681A68224B65
:1033BC0013403A6891683A68126911433A68526945
:1033CC0011433A68D2690A431A437B681A603B6816
:1033DC00DB6819467868FFF76AFF3B689B691946FA
:1033EC007868FFF776FF7B68144A934203D1032079
:1033FC00FFF722FEB860BB68002B11D03B685B68FE
:10340C00002B0DD00023FB733B681A683B68D9690D
:10341C003B685B6800930B46B9687868FFF76CFFF4
:10342C003B681B6819467868FFF72EFFFB7B184634
:10343C001037BD4680BD00BFF369FFEF0038014077
:10344C0080B485B000AF78604BF68073FB607B680E
:10345C00B3F840309AB2FB689BB213439AB27B68C4
:10346C00A3F84020002318461437BD4680BC704793
:10347C0080B485B000AF78604BF68073FB607B68DE
:10348C00B3F840309AB2FB689BB2DB439BB213405B
:10349C009AB27B68A3F84020002318461437BD4627
:1034AC0080BC704784B080B582B000AF786007F103
:1034BC00140080E80E007B680122A3F840207B6892
:1034CC000022A3F840207B680022A3F844207B68EC
:1034DC000022A3F850207868FFF7B2FF00231846AB
:1034EC000837BD46BDE8804004B0704770B50D4E3E
:1034FC000D4D761BB61006D00024013455F8043B54
:10350C009847A642F9D1094E094D761B00F0D4F824
:10351C00B61006D00024013455F8043B9847A64257
:10352C00F9D170BDC4370008C4370008CC37000887
:10353C00C4370008F0B4860746D0541E002A3CD08D
:10354C00CAB2034602E014F1FF3436D303F8012B60
:10355C009D07F8D1032C29D9CDB245EA05250F2CAE
:10356C0045EA054533D9A4F11006360903F12007C5
:10357C0007EB061703F1100242E9045542E9025524
:10358C001032BA42F8D1721C14F00C0F03EB021279
:10359C0004F00F0613D0331F23F00303043313443A
:1035AC0042F8045B9342FBD106F003042CB1C9B280
:1035BC001C4403F8011B9C42FBD1F0BC7047344601
:1035CC001346002CF3D1F8E714460346C2E71A461B
:1035DC002646E0E7024B13B1024800F005B87047ED
:1035EC000000000001360008002301461A46184668
:1035FC0000F01EB838B50A4C0A4D641BA4100AD052
:10360C0004F18043013B05EB8305013C55F804397B
:10361C009847002CF9D1BDE8384000F053B800BFF2
:10362C00D0370008CC370008704700BF704700BF88
:10363C002DE9F0411E4C0546206890461F460E466B
:10364C00FFF7F2FF1B4B1A68D2F8483133B35A68B4
:10365C0020681F2A27DC4DB9911C01325A6043F8AF
:10366C002160FFF7E3FF0020BDE8F08103EB82014E
:10367C000124C1F8888004FA02FED3F88841022D97
:10368C0044EA0E0CC3F888C1C1F80871E4D1D3F830
:10369C008C114EEA0104C3F88C41DDE702F5A673E8
:1036AC00C2F84831D3E7FFF7C1FF4FF0FF30DBE73B
:1036BC0040040020C0370008F8B500BFF8BC08BCB7
:1036CC009E467047F8B500BFF8BC08BC9E467047D4
:1036DC001200000024000000360000004000000032
:1036EC00060000000C0000001000000000000000AC
:1036FC0001000000020000000300000001000000B7
:10370C0003000000050000000100000001000000A3
:10371C00060000000A00000020000000020000006B
:10372C000400000008000000100000004000000031
:10373C0080000000000100000002000000000000FA
:10374C00000000000000000000000000010000006C
:10375C00020000000300000004000000A08601002D
:10376C00400D0300801A060000350C0040420F008B
:10377C0080841E0000093D0000127A000024F40031
:10378C0000366E010048E801006CDC02000000000D
:10379C00000000000000000000000000010002001A
:1037AC000400060008000A000C0010002000400075
:0837BC0080000001180000204C
:0837C400E13500086101000875
:0437CC003D010008B3
:1037D00000093D0010000000010000000000000092
:1037E00000000000040300206C030020D40300202C
:1037F00000000000000000000000000000000000C9
:1038000000000000000000000000000000000000B8
:1038100000000000000000000000000000000000A8
:103820000000000000000000000000000000000098
:103830000000000000000000000000000000000088
:103840000000000000000000000000000000000078
:103850000000000000000000000000000000000068
:103860000000000000000000000000000000000058
:103870000000000000000000000000000000000048
:103880000000000000000000010000000000000037
:103890000E33CDAB34126DE6ECDE05000B000000FC
:1038A0000000000000000000000000000000000018
:1038B0000000000000000000000000000000000008
:1038C00000000000000000000000000000000000F8
:1038D00000000000000000000000000000000000E8
:0C3C00000000000000000000D8060020BA
:0400000508000839AE
:00000001FF
